:10000000EFBFBD2002EFBFBDEFBFBD75EFBFBDEFBE
:10001000BFBDEFBFBDEFBFBDEFBFBD7F7FEFBFBDBA
:10002000EFBFBDEFBFBDEFBFBDEFBFBDEFBFBDEFCA
:10003000BFBDEFBFBDEFBFBDEFBFBDEFBFBDEFBFEA
:10004000BDEFBFBDEFBFBDEFBFBDEFBFBDEFBFBDDC
:10005000EFBFBDEFBFBDEFBFBDEFBFBDEFBFBDEF9A
:10006000BFBDEFBFBDEFBFBDEFBFBDEFBFBDEFBFBA
:10007000BDEFBFBDEFBFBDEFBFBDEFBFBDEFBFBDAC
:10008000EFBFBDEFBFBDEFBFBDEFBFBDEFBFBDEF6A
:10009000BFBDEFBFBDEFBFBDEFBFBDEFBFBDEFBF8A
:1000A000BDEFBFBDEFBFBDEFBFBDEFBFBDEFBFBD7C
:1000B000EFBFBDEFBFBDEFBFBDEFBFBDEFBFBDEF3A
:1000C000BFBDEFBFBDEFBFBDEFBFBDEFBFBDEFBF5A
:1000D000BDEFBFBDEFBFBDEFBFBDEFBFBDEFBFBD4C
:1000E000EFBFBDEFBFBD7FEFBFBDEFBFBDEFBFBD7A
:1000F000EFBFBDEFBFBDEFBFBDEFBFBDEFBFBDEFFA
:10010000BFBDEFBFBDEFBFBDEFBFBDEFBFBDEFBF19
:10011000BDEFBFBDEFBFBDEFBFBDEFBFBDEFBFBD0B
:10012000EFBFBDEFBFBDEFBFBDEFBFBDEFBFBDEFC9
:10013000BFBDEFBFBDEFBFBDEFBFBDEFBFBDEFBFE9
:10014000BDEFBFBDEFBFBDEFBFBDEFBFBDEFBFBDDB
:10015000EFBFBDEFBFBDEFBFBDEFBFBDEFBFBDEF99
:10016000BFBDEFBFBDEFBFBDEFBFBDEFBFBDEFBFB9
:10017000BDEFBFBDEFBFBDEFBFBDEFBFBDEFBFBDAB
:10018000EFBFBDEFBFBDEFBFBDEFBFBDEFBFBDEF69
:10019000BFBDEFBFBDEFBFBDEFBFBDEFBFBDEFBF89
:1001A000BDEFBFBDEFBFBDEFBFBDEFBFBDEFBFBD7B
:1001B000EFBFBDEFBFBDEFBFBDEFBFBDEFBFBDEF39
:1001C000BFBDEFBFBD3FEFBFBDEFBFBDEFBFBDEFD9
:1001D000BFBDEFBFBDEFBFBDEFBFBDEFBFBDEFBF49
:1001E000BD5F5FEFBFBDEFBFBDEFBFBDEFBFBDEFF9
:1001F000BFBDEFBFBDEFBFBDEFBFBDEFBFBDEFBF29
:10020000BDEFBFBDEFBFBDEFBFBDEFBFBDEFBFBD1A
:10021000EFBFBDEFBFBDEFBFBDEFBFBDEFBFBDEFD8
:10022000BFBDEFBFBDEFBFBDEFBFBDEFBFBDEFBFF8
:10023000BDEFBFBDEFBFBDEFBFBDEFBFBDEFBFBDEA
:10024000EFBFBDEFBFBDEFBFBDEFBFBDEFBFBDEFA8
:10025000BFBDEFBFBDEFBFBDEFBFBDEFBFBDEFBFC8
:10026000BDEFBFBDEFBFBDEFBFBDEFBFBDEFBFBDBA
:10027000EFBFBDEFBFBDEFBFBDEFBFBDEFBFBDEF78
:10028000BFBDEFBFBDEFBFBDEFBFBDEFBFBDEFBF98
:10029000BDEFBFBDEFBFBDEFBFBDEFBFBDEFBFBD8A
:1002A0003EEFBFBDEFBFBD7F7F7FEFBFBDEFBFBDE7
:1002B000EFBFBDEFBFBDEFBFBDEFBFBDEFBFBDEF38
:1002C000BFBDEFBFBDEFBFBDEFBFBDEFBFBDEFBF58
:1002D000BDEFBFBDEFBFBDEFBFBDEFBFBDEFBFBD4A
:1002E000EFBFBDEFBFBDEFBFBDEFBFBDEFBFBDEF08
:1002F000BFBDEFBFBDEFBFBDEFBFBDEFBFBDEFBF28
:10030000BDEFBFBDEFBFBDEFBFBDEFBFBDEFBFBD19
:10031000EFBFBDEFBFBDEFBFBDEFBFBDEFBFBDEFD7
:10032000BFBDEFBFBDEFBFBDEFBFBDEFBFBDEFBFF7
:10033000BDEFBFBDEFBFBDEFBFBDEFBFBDEFBFBDE9
:10034000EFBFBDEFBFBDEFBFBDEFBFBDEFBFBDEFA7
:10035000BFBDEFBFBDEFBFBDEFBFBDEFBFBDEFBFC7
:10036000BDEFBFBDEFBFBDEFBFBDEFBFBDEFBFBDB9
:10037000EFBFBDEFBFBDEFBFBD7FEFBFBDEFBFBDE7
:10038000EFBFBDEFBFBDEFBFBDEFBFBDEFBFBDEF67
:10039000BFBDEFBFBDEFBFBDEFBFBDEFBFBDEFBF87
:1003A000BDEFBFBDEFBFBDEFBFBDEFBFBDEFBFBD79
:1003B000EFBFBDEFBFBDEFBFBDEFBFBDEFBFBDEF37
:1003C000BFBDEFBFBDEFBFBDEFBFBDEFBFBD7D7E0A
:1003D000EFBFBDEFBFBDEFBFBD5F5F5FEFBFBDEF65
:1003E000BFBDEFBFBDEFBFBDEFBFBDEFBFBDEFBF37
:1003F000BDEFBFBDEFBFBDEFBFBDEFBFBDEFBFBD29
:10040000EFBFBDEFBFBDEFBFBDEFBFBDEFBFBDEFE6
:10041000BFBDEFBFBDEFBFBDEFBFBDEFBFBDEFBF06
:10042000BDEFBFBDEFBFBDEFBFBDEFBFBDEFBFBDF8
:10043000EFBFBDEFBFBDEFBFBDEFBFBDEFBFBDEFB6
:10044000BFBDEFBFBDEFBFBDEFBFBDEFBFBD3FEF56
:10045000BFBDEFBFBDEFBFBDEFBFBDEFBFBDEFBFC6
:10046000BDEFBFBDEFBFBDEFBFBDEFBFBDEFBFBDB8
:10047000EFBFBDEFBFBDEFBFBDEFBFBDEFBFBDEF76
:10048000BFBDEFBFBDEFBFBDEFBFBDEFBFBDEFBF96
:10049000BDEFBFBDEFBFBDEFBFBDEFBFBDEFBFBD88
:1004A000EFBFBDEFBFBDEFBFBDEFBFBDEFBFBDEF46
:1004B000BFBDEFBFBDEFBFBDEFBFBDEFBFBDEFBF66
:1004C000BDEFBFBDEFBFBDEFBFBDEFBFBDEFBFBD58
:1004D000EFBFBDEFBFBDEFBFBDEFBFBDEFBFBDEF16
:1004E000BFBDEFBFBDEFBFBDEFBFBDEFBFBDEFBF36
:1004F000BDEFBFBDEFBFBDEFBFBDEFBFBDEFBFBD28
:10050000EFBFBDEFBFBDEFBFBDEFBFBDEFBFBDEFE5
:10051000BFBDEFBFBDEFBFBDEFBFBDEFBFBDEFBF05
:10052000BDEFBFBDEFBFBDEFBFBDEFBFBD7FEFBF35
:10053000BDEFBFBDEFBFBDEFBFBDEFBFBDEFBFBDE7
:10054000EFBFBDEFBFBDEFBFBDEFBFBDEFBFBDEFA5
:10055000BFBDEFBFBDEFBFBDEFBFBDEFBFBDEFBFC5
:10056000BDEFBFBDEFBFBDEFBFBDEFBFBDEFBFBDB7
:10057000EFBFBDEFBFBDEFBFBDEFBFBDEFBFBDEF75
:10058000BFBDEFBFBDEFBFBDEFBFBDEFBFBDEFBF95
:10059000BDEFBFBDEFBFBDEFBFBDEFBFBDEFBFBD87
:1005A000EFBFBDEFBFBDEFBFBDEFBFBDEFBFBDEF45
:1005B000BFBDEFBFBDEFBFBDEFBFBDEFBFBDEFBF65
:1005C000BDEFBFBDEFBFBDEFBFBDEFBFBDEFBFBD57
:1005D000EFBFBDEFBFBDEFBFBDEFBFBDEFBFBDEF15
:1005E000BFBDEFBFBDEFBFBDEFBFBDEFBFBDEFBF35
:1005F000BDEFBFBDEFBFBDEFBFBDEFBFBDEFBFBD27
:10060000EFBFBDEFBFBDEFBFBDEFBFBD3FEFBFBD94
:10061000EFBFBDEFBFBDEFBFBDEFBFBDEFBFBDEFD4
:10062000BFBDEFBFBDEFBFBDEFBFBDEFBFBDEFBFF4
:10063000BDEFBFBDEFBFBDEFBFBDEFBFBDEFBFBDE6
:10064000EFBFBDEFBFBDEFBFBDEFBFBDEFBFBDEFA4
:10065000BFBDEFBFBDEFBFBDEFBFBDEFBFBDEFBFC4
:10066000BDEFBFBDEFBFBDEFBFBDEFBFBDEFBFBDB6
:10067000EFBFBDEFBFBDEFBFBDEFBFBDEFBFBDEF74
:10068000BFBDEFBFBDEFBFBDEFBFBDEFBFBDEFBF94
:10069000BDEFBFBDEFBFBD7FEFBFBDEFBFBDEFBFC4
:1006A000BDEFBFBDEFBFBDEFBFBDEFBFBDEFBFBD76
:1006B000CFBFEFBFBDEFBFBDEFBFBDEFBFBDEFBF52
:1006C000BDEFBFBDEFBFBDEFBFBDEFBFBDEFBFBD56
:1006D000EFBFBDEFBFBDEFBFBDEFBFBDEFBFBDEF14
:1006E000BFBD7FEFBFBDEFBFBDEFBFBDEFBFBDEF74
:1006F000BFBDEFBFBDEFBFBDEFBFBDEFBFBDEFBF24
:10070000BDEFBFBDEFBFBDEFBFBDEFBFBDEFBFBD15
:10071000EFBFBDEFBFBDEFBFBDEFBFBDEFBFBDEFD3
:10072000BFBDEFBFBDEFBFBDEFBFBDEFBFBDEFBFF3
:10073000BDEFBFBDEFBFBDEFBFBDEFBFBDEFBFBDE5
:10074000EFBFBDEFBFBDEFBFBDEFBFBDEFBFBDEFA3
:10075000BFBDEFBFBDEFBFBDEFBFBDEFBFBDEFBFC3
:10076000BDEFBFBDEFBFBDEFBFBDEFBFBDEFBFBDB5
:10077000EFBFBDEFBFBDEFBFBDEFBFBDEFBFBDEF73
:10078000BFBDEFBFBDEFBFBDEFBFBDEFBFBDEFBF93
:10079000BDEFBFBDEFBFBDEFBFBDEFBFBDEFBFBD85
:1007A000EFBFBDEFBFBDEFBFBDEFBFBDEFBFBDEF43
:1007B000BFBDEFBFBDEFBFBDEFBFBDEFBFBDEFBF63
:1007C000BD3FEFBFBDEFBFBDEFBFBDEFBFBDEFBFD3
:1007D000BDEFBFBDEFBFBDEFBFBDEFBFBD5F5FEF03
:1007E000BFBDEFBFBDEFBFBDEFBFBDEFBFBDEFBF33
:1007F000BDEFBFBDEFBFBDEFBFBDEFBFBDEFBFBD25
:10080000EFBFBDEFBFBDEFBFBDEFBFBDEFBFBDEFE2
:10081000BFBDEFBFBDEFBFBDEFBFBDEFBFBDEFBF02
:10082000BDEFBFBDEFBFBDEFBFBDEFBFBDEFBFBDF4
:10083000EFBFBDEFBFBDEFBFBDEFBFBDEFBFBDEFB2
:10084000BFBDEFBFBDEFBFBDEFBFBDEFBFBDEFBFD2
:10085000BDEFBFBDEFBFBDEFBFBDEFBFBDEFBFBDC4
:10086000EFBFBDEFBFBDEFBFBDEFBFBDEFBFBDEF82
:10087000BFBDEFBFBDEFBFBDEFBFBDEFBFBDEFBFA2
:10088000BDEFBFBDEFBFBDEFBFBDEFBFBDEFBFBD94
:10089000EFBFBDEFBFBDEFBFBDEFBFBD3EEFBFBD03
:1008A000EFBFBD7F7F7FEFBFBDEFBFBDEFBFBDEF30
:1008B000BFBDEFBFBDEFBFBDEFBFBDEFBFBDEFBF62
:1008C000BDEFBFBDEFBFBDEFBFBDEFBFBDEFBFBD54
:1008D000EFBFBDEFBFBDEFBFBDEFBFBDEFBFBDEF12
:1008E000BFBDEFBFBDEFBFBDEFBFBDEFBFBDEFBF32
:1008F000BDEFBFBDEFBFBDEFBFBDEFBFBDEFBFBD24
:10090000EFBFBDEFBFBDEFBFBDEFBFBDEFBFBDEFE1
:10091000BFBDEFBFBDEFBFBDEFBFBDEFBFBDEFBF01
:10092000BDEFBFBDEFBFBDEFBFBDEFBFBDEFBFBDF3
:10093000EFBFBDEFBFBDEFBFBDEFBFBDEFBFBDEFB1
:10094000BFBDEFBFBDEFBFBDEFBFBDEFBFBDEFBFD1
:10095000BDEFBFBDEFBFBDEFBFBDEFBFBDEFBFBDC3
:10096000EFBFBDEFBFBDEFBFBDEFBFBDEFBFBDEF81
:10097000BFBDEFBFBD7FEFBFBDEFBFBDEFBFBDEFE1
:10098000BFBDEFBFBDEFBFBDEFBFBDEFBFBDEFBF91
:10099000BDEFBFBDEFBFBDEFBFBDEFBFBDEFBFBD83
:1009A000EFBFBDEFBFBDEFBFBDEFBFBDEFBFBDEF41
:1009B000BFBDEFBFBDEFBFBDEFBFBDEFBFBDEFBF61
:1009C000BDEFBFBDEFBFBDEFBFBD7D7EEFBFBDEFD4
:1009D000BFBDEFBFBD5F5F5FEFBFBDEFBFBDEFBF8F
:1009E000BDEFBFBDEFBFBDEFBFBDEFBFBDEFBFBD33
:1009F000EFBFBDEFBFBDEFBFBDEFBFBDEFBFBDEFF1
:100A0000BFBDEFBFBDEFBFBDEFBFBDEFBFBDEFBF10
:100A1000BDEFBFBDEFBFBDEFBFBDEFBFBDEFBFBD02
:100A2000EFBFBDEFBFBDEFBFBDEFBFBDEFBFBDEFC0
:100A3000BFBDEFBFBDEFBFBDEFBFBDEFBFBDEFBFE0
:100A4000BDEFBFBDEFBFBDEFBFBD3FEFBFBDEFBF50
:100A5000BDEFBFBDEFBFBDEFBFBDEFBFBDEFBFBDC2
:100A6000EFBFBDEFBFBDEFBFBDEFBFBDEFBFBDEF80
:100A7000BFBDEFBFBDEFBFBDEFBFBDEFBFBDEFBFA0
:100A8000BDEFBFBDEFBFBDEFBFBDEFBFBDEFBFBD92
:100A9000EFBFBDEFBFBDEFBFBDEFBFBDEFBFBDEF50
:100AA000BFBDEFBFBDEFBFBDEFBFBDEFBFBDEFBF70
:100AB000BDEFBFBDEFBFBDEFBFBDEFBFBDEFBFBD62
:100AC000EFBFBDEFBFBDEFBFBDEFBFBDEFBFBDEF20
:100AD000BFBDEFBFBDEFBFBDEFBFBDEFBFBDEFBF40
:100AE000BDEFBFBDEFBFBDEFBFBDEFBFBDEFBFBD32
:100AF000EFBFBDEFBFBDEFBFBDEFBFBDEFBFBDEFF0
:100B0000BFBDEFBFBDEFBFBDEFBFBDEFBFBDEFBF0F
:100B1000BDEFBFBDEFBFBDEFBFBDEFBFBDEFBFBD01
:100B2000EFBFBDEFBFBDEFBFBD7FEFBFBDEFBFBD2F
:100B3000EFBFBDEFBFBDEFBFBDEFBFBDEFBFBDEFAF
:100B4000BFBDEFBFBDEFBFBDEFBFBDEFBFBDEFBFCF
:100B5000BDEFBFBDEFBFBDEFBFBDEFBFBDEFBFBDC1
:100B6000EFBFBDEFBFBDEFBFBDEFBFBDEFBFBDEF7F
:100B7000BFBDEFBFBDEFBFBDEFBFBDEFBFBDEFBF9F
:100B8000BDEFBFBDEFBFBDEFBFBDEFBFBDEFBFBD91
:100B9000EFBFBDEFBFBDEFBFBDEFBFBDEFBFBDEF4F
:100BA000BFBDEFBFBDEFBFBDEFBFBDEFBFBDEFBF6F
:100BB000BDEFBFBDEFBFBDEFBFBDEFBFBDEFBFBD61
:100BC000EFBFBDEFBFBDEFBFBDEFBFBDEFBFBDEF1F
:100BD000BFBDEFBFBDEFBFBDEFBFBDEFBFBDEFBF3F
:100BE000BDEFBFBDEFBFBDEFBFBDEFBFBDEFBFBD31
:100BF000EFBFBDEFBFBDEFBFBDEFBFBDEFBFBDEFEF
:100C0000BFBDEFBFBDEFBFBD3FEFBFBDEFBFBDEF8E
:100C1000BFBDEFBFBDEFBFBDEFBFBDEFBFBDEFBFFE
:100C2000BDEFBFBDEFBFBDEFBFBDEFBFBDEFBFBDF0
:100C3000EFBFBDEFBFBDEFBFBDEFBFBDEFBFBDEFAE
:100C4000BFBDEFBFBDEFBFBDEFBFBDEFBFBDEFBFCE
:100C5000BDEFBFBDEFBFBDEFBFBDEFBFBDEFBFBDC0
:100C6000EFBFBDEFBFBDEFBFBDEFBFBDEFBFBDEF7E
:100C7000BFBDEFBFBDEFBFBDEFBFBDEFBFBDEFBF9E
:100C8000BDEFBFBDEFBFBDEFBFBDEFBFBDEFBFBD90
:100C9000EFBFBD7FEFBFBDEFBFBDEFBFBDEFBFBDBE
:100CA000EFBFBDEFBFBDEFBFBDEFBFBDCFBFEFBF5C
:100CB000BDEFBFBDEFBFBDEFBFBDEFBFBDEFBFBD60
:100CC000EFBFBDEFBFBDEFBFBDEFBFBDEFBFBDEF1E
:100CD000BFBDEFBFBDEFBFBDEFBFBDEFBFBD7FEF7E
:100CE000BFBDEFBFBDEFBFBDEFBFBDEFBFBDEFBF2E
:100CF000BDEFBFBDEFBFBDEFBFBDEFBFBDEFBFBD20
:100D0000EFBFBDEFBFBDEFBFBDEFBFBDEFBFBDEFDD
:100D1000BFBDEFBFBDEFBFBDEFBFBDEFBFBDEFBFFD
:100D2000BDEFBFBDEFBFBDEFBFBDEFBFBDEFBFBDEF
:100D3000EFBFBDEFBFBDEFBFBDEFBFBDEFBFBDEFAD
:100D4000BFBDEFBFBDEFBFBDEFBFBDEFBFBDEFBFCD
:100D5000BDEFBFBDEFBFBDEFBFBDEFBFBDEFBFBDBF
:100D6000EFBFBDEFBFBDEFBFBDEFBFBDEFBFBDEF7D
:100D7000BFBDEFBFBDEFBFBDEFBFBDEFBFBDEFBF9D
:100D8000BDEFBFBDEFBFBDEFBFBDEFBFBDEFBFBD8F
:100D9000EFBFBDEFBFBDEFBFBDEFBFBDEFBFBDEF4D
:100DA000BFBDEFBFBDEFBFBDEFBFBDEFBFBDEFBF6D
:100DB000BDEFBFBDEFBFBDEFBFBDEFBFBD3FEFBFDD
:100DC000BDEFBFBDEFBFBDEFBFBDEFBFBDEFBFBD4F
:100DD000EFBFBDEFBFBDEFBFBD5F5FEFBFBDEFBFFB
:100DE000BDEFBFBDEFBFBDEFBFBDEFBFBDEFBFBD2F
:100DF000EFBFBDEFBFBDEFBFBDEFBFBDEFBFBDEFED
:100E0000BFBDEFBFBDEFBFBDEFBFBDEFBFBDEFBF0C
:100E1000BDEFBFBDEFBFBDEFBFBDEFBFBDEFBFBDFE
:100E2000EFBFBDEFBFBDEFBFBDEFBFBDEFBFBDEFBC
:100E3000BFBDEFBFBDEFBFBDEFBFBDEFBFBDEFBFDC
:100E4000BDEFBFBDEFBFBDEFBFBDEFBFBDEFBFBDCE
:100E5000EFBFBDEFBFBDEFBFBDEFBFBDEFBFBDEF8C
:100E6000BFBDEFBFBDEFBFBDEFBFBDEFBFBDEFBFAC
:100E7000BDEFBFBDEFBFBDEFBFBDEFBFBDEFBFBD9E
:100E8000EFBFBDEFBFBDEFBFBDEFBFBDEFBFBDEF5C
:100E9000BFBDEFBFBDEFBFBD3EEFBFBDEFBFBD7F6D
:100EA0007F7FEFBFBDEFBFBDEFBFBDEFBFBDEFBFEA
:100EB000BDEFBFBDEFBFBDEFBFBDEFBFBDEFBFBD5E
:100EC000EFBFBDEFBFBDEFBFBDEFBFBDEFBFBDEF1C
:100ED000BFBDEFBFBDEFBFBDEFBFBDEFBFBDEFBF3C
:100EE000BDEFBFBDEFBFBDEFBFBDEFBFBDEFBFBD2E
:100EF000EFBFBDEFBFBDEFBFBDEFBFBD7FEFBFBD5C
:100F0000EFBFBDEFBFBDEFBFBDEFBFBDEFBFBDEFDB
:100F1000BFBDEFBFBDEFBFBDEFBFBDEFBFBDEFBFFB
:100F2000BDEFBFBDEFBFBDEFBFBDEFBFBDEFBFBDED
:100F3000EFBFBDEFBFBDEFBFBDEFBFBDEFBFBDEFAB
:100F4000BFBDEFBFBDEFBFBDEFBFBDEFBFBDEFBFCB
:100F5000BDEFBFBDEFBFBDEFBFBDEFBFBDEFBFBDBD
:100F6000EFBFBDEFBFBDEFBFBDEFBFBDEFBFBD7FEB
:100F7000EFBFBDEFBFBDEFBFBDEFBFBDEFBFBDEF6B
:100F8000BFBDEFBFBDEFBFBDEFBFBDEFBFBDEFBF8B
:100F9000BDEFBFBDEFBFBDEFBFBDEFBFBDEFBFBD7D
:100FA000EFBFBDEFBFBDEFBFBDEFBFBDEFBFBDEF3B
:100FB000BFBDEFBFBDEFBFBDEFBFBDEFBFBDEFBF5B
:100FC000BDEFBFBD7D7EEFBFBDEFBFBDEFBFBD5F5E
:100FD0005F5FEFBFBDEFBFBDEFBFBDEFBFBDEFBFF9
:100FE000BDEFBFBDEFBFBDEFBFBDEFBFBDEFBFBD2D
:100FF000EFBFBDEFBFBDEFBFBDEFBFBDEFBFBDEFEB
:10100000BFBDEFBFBDEFBFBDEFBFBDEFBFBDEFBF0A
:10101000BDEFBFBDEFBFBDEFBFBDEFBFBDEFBFBDFC
:10102000EFBFBDEFBFBDEFBFBDEFBFBDEFBFBDEFBA
:10103000BFBDEFBFBDEFBFBDEFBFBDEFBFBDEFBFDA
:10104000BDEFBFBD3FEFBFBDEFBFBDEFBFBDEFBF4A
:10105000BDEFBFBDEFBFBDEFBFBDEFBFBDEFBFBDBC
:10106000EFBFBDEFBFBDEFBFBDEFBFBDEFBFBDEF7A
:10107000BFBDEFBFBDEFBFBDEFBFBDEFBFBDEFBF9A
:10108000BDEFBFBDEFBFBDEFBFBDEFBFBDEFBFBD8C
:10109000EFBFBDEFBFBDEFBFBDEFBFBDEFBFBDEF4A
:1010A000BFBDEFBFBDEFBFBDEFBFBDEFBFBDEFBF6A
:1010B000BDEFBFBDEFBFBDEFBFBDEFBFBDEFBFBD5C
:1010C000EFBFBDEFBFBDEFBFBDEFBFBDEFBFBD7F8A
:1010D000EFBFBDEFBFBDEFBFBDEFBFBDEFBFBDEF0A
:1010E000BFBDEFBFBDEFBFBDEFBFBDDE9F4F5F4FC9
:1010F000EFBFBDEFBFBDEFBFBDEFBFBDEFBFBDEFEA
:10110000BFBDEFBFBDEFBFBDEFBFBDEFBFBDEFBF09
:10111000BDEFBFBDEFBFBDEFBFBDEFBFBDEFBFBDFB
:10112000EFBFBDEFBFBDEFBFBDEFBFBDEFBFBDEFB9
:10113000BFBDEFBFBDEFBFBDEFBFBDEFBFBDEFBFD9
:10114000BDEFBFBDEFBFBDEFBFBDEFBFBDEFBFBDCB
:10115000EFBFBDEFBFBDEFBFBDEFBFBDEFBFBDEF89
:10116000BFBDEFBFBDEFBFBDEFBFBDEFBFBDEFBFA9
:10117000BD4200EFBFBD0000000000000000000005
:10118000000000000000000000000000000000005F
:10119000000000000000000000000000000000004F
:1011A000000000000000000000000000000000003F
:1011B000000000000000000000000000000000002F
:0213900000005B
:00000001FF
